:1000000000800020BD0100008D1B0000511B00007E
:10001000511B0000511B0000511B0000511B000030
:10002000511B0000511B0000511B00008D1B0000E4
:100030008D1B0000511B00008D1B0000411B0000A8
:100040008D1B00008D1B00008D1B00008D1B000010
:100050008D1B00008D1B00008D1B00008D1B000000
:100060008D1B00008D1B00008D1B00008D1B0000F0
:100070008D1B00008D1B00008D1B00008D1B0000E0
:100080008D1B00008D1B00008D1B00008D1B0000D0
:100090008D1B00008D1B00008D1B00008D1B0000C0
:1000A0008D1B00008D1B00008D1B00008D1B0000B0
:1000B0008D1B00008D1B00008D1B00008D1B0000A0
:1000C0008D1B00008D1B00008D1B00008D1B000090
:1000D0008D1B00008D1B00008D1B00008D1B000080
:1000E0008D1B00008D1B00008D1B00008D1B000070
:1000F0008D1B0000DD1F00008D1B0000D5240000BB
:100100008D1B0000F12800008D1B00008D1B0000DE
:100110008D1B00008D1B00008D1B00008D1B00003F
:100120008D1B00008D1B00008D1B00008D1B00002F
:100130008D1B00008D1B00008D1B00007D05000045
:100140008D1B00008D1B00008D1B00008D1B00000F
:100150008D1B00008D1B00008D1B00008D1B0000FF
:100160008D1B0000E50B00008D1B00008D1B0000A7
:100170008D1B00008D1B00008D1B00008D1B0000DF
:100180008D1B00008D1B00008D1B00008D1B0000CF
:100190008D1B00008D1B00008D1B00008D1B0000BF
:1001A0008D1B00008D1B00008D1B00008D1B0000AF
:1001B0008D1B00008D1B00008D1B000010B56B4BCC
:1001C0004CF220521A804DF628121A8000BF00BF50
:1001D00001F0E0FC4FF01062654B1A60654A08338D
:1001E0001A60654A04331A60A3F530432C3B1B6840
:1001F00013F4807F06D10022604B1A604FF4A8529E
:10020000043B1A605E4B1B7813F0080F04D05C4B64
:100210001A7842F008021A702A225A4B1A705A4B66
:100220005A4A9A420DD2131D594CE41A24F0030481
:1002300004340023104657495A581A500433A34235
:10024000FAD1554B554A9A4280F08C80131F54497D
:10025000C91A21F003011A1D1144002243F8042F8A
:100260008B42FBD17EE05A581A500433B3F5DE7F3F
:10027000F9D14C4B80214C4A03F8011B9342FBD12E
:100280004A4B4B4A1A600A224A4B1A702422A3F6A0
:10029000FF731A70A022013B1A7006331A7812F00D
:1002A000020FFBD0444B1A7812F0100FFBD1424BD7
:1002B0001A7802F00C02082AFAD103223F4B1A7076
:1002C000402201331A7001331A7812F0200FFBD04C
:1002D000394B1A7812F0400FFBD0394A394B1A606B
:1002E000022204331A602022374B1A7006331A7820
:1002F00002F00C020C2AFAD1344A354B1A6045F64A
:10030000BF52344B1A60002204331A600722083BA4
:100310001A60314A03F551631A6062B600F024FB9B
:10032000164B1B6813F0010F05D02C4800F090FA13
:100330002B4A2C4B1A602C4B1B7813F0400F0AD021
:10034000284B1A68264B9A4205D1244800F080FABF
:100350000022244B1A6002F0BDFB01F021FC00F0EA
:100360006FFAFEE70023124820497CE70E20054083
:1003700030800440823F04000100002B14D0034071
:1003800002D0074000E00740908CFF1F6087FF1FEE
:10039000938CFF1F602F0000B08FFF1F908CFF1FFA
:1003A000AB8FFF1F00E400E05FE400E008ED00E039
:1003B0000082FF1F005006400640064004400640F1
:1003C000000003334480044000400640C010050094
:1003D0000480044014E000E00000202062D9D555DC
:1003E000A5C3945A1CE0034000F007400000000041
:1003F000FFFFFFFFFFFFFFFFFFFFFFFFFFFFFFFF0D
:10040000FFFFFFFFFFFFFFFFFFFFFFFFFEFFFFFFFD
:1004100010B5054C237833B9044B13B10448AFF33E
:1004200000800123237010BD908CFF1F000000008E
:10043000602F000008B5064B1BB106480649AFF314
:1004400000800648036813B1054B03B1984708BD07
:1004500000000000602F0000948CFF1F908CFF1F95
:100460000000000010B51A4C2078012100F024FA99
:100470002078012100F0FCF94FF4FA6000F060FAF6
:100480002078002100F0F4F94FF47A7000F058FA67
:100490002078012100F0ECF90E4C204640F6FF7167
:1004A00000F03EF9204600F0F5F84B2000F048FA45
:1004B000204600F0C3F8204600F0ECF84B2000F096
:1004C0003FFA204640F6FF7100F02AF910BD00BF48
:1004D0006087FF1FCC8CFF1F2DE9F8430025012604
:1004E000254CA94640F6FF77204600F0A7F815B343
:1004F0005FFA85F808F1FF312046C9B24FF47A72ED
:1005000000F064F8204641463A4600F05FF80F2DAF
:1005100025D008F101012046C9B24FF47A7200F0EB
:1005200055F8204600F0B6F84B2000F009FA3544A3
:100530000F2D1EDCD8E7204649463A4600F046F823
:10054000204601214FF47A7200F040F8204600F076
:10055000A1F84B2000F0F4F901350126C4E720464C
:1005600000F098F84B2000F0EBF90E254FF0FF3625
:10057000BAE7BDE8F88300BFCC8CFF1F08B50F4B6E
:100580001B6813F0800F03D003F07F030B4A136046
:100590004FF4A2720A4B1A60084B1A6802F0070265
:1005A00042F028021A600022064B1A70064B1B68A4
:1005B0001BB162B6044B1B68984708BD009003400E
:1005C00030900440AC8CFF1FB08CFF1F10B4C1F101
:1005D0000F01C9B20D4801EB41035B10C41811F0C3
:1005E000010F07D0C15C21F00F0141EA2221C15463
:1005F000627007E01111C154637803F00F0343EAFE
:10060000021262705DF8044B704700BFB48CFF1F8C
:1006100010B4C1F30714080140EA2120C0B2064B10
:1006200003F118021C705870997003339342F9D388
:100630005DF8044B704700BFB48CFF1F08B5002164
:10064000FFF7E6FF08BD00BF08B50620012100F056
:1006500033F90720012100F02FF90422014B1A6021
:1006600008BD00BFC8F00F4070B408228023074DBA
:100670001026074C0421034214BF26602E6021601F
:1006800029605B08013AF6D170BC7047C8F00F4092
:10069000C4F00F4038B51C4B1B7813F0FF0F2CD162
:1006A0004FF4A272194B1A60194B1B781BB1002230
:1006B000174B1A7023E00423164A136004321360A8
:1006C0001DE02078FFF7D0FF6078FFF7CDFFA0781E
:1006D000FFF7CAFF0334AC42F3D301220A4B1A706E
:1006E0004FF45172094B1A600B4B1A6802F0070263
:1006F00042F068021A60002038BD012038BD074C66
:1007000004F11805DDE700BFAC8CFF1F30900440FA
:10071000AD8CFF1FC4F00F4000900340B48CFF1F4E
:1007200070B504460E460320012100F0C5F80420F0
:10073000012100F0C1F80520012100F0BDF8364D7F
:100740004FF400532B60FFF77FFF20463146FFF741
:100750005FFF2046FFF79EFF4FF4A2722F4B1A60F7
:100760002F4A136803F0070343F0280313600023A4
:100770002C490B704FF4805129602B4801600160B7
:100780002A49086840F00400086001F5CF3101F201
:10079000D1110B702648037002250A380570042514
:1007A000013005700120234D287001352B70013573
:1007B0002B7001352B706026053D2E7008704FF4AC
:1007C0001170A1F5AF31A1F2E911086013604FF487
:1007D0004050A1F598311439086004390B60242386
:1007E00008310B6008310B6042F6FE71124B196044
:1007F00042F6FD7108331960282313604FF0004260
:1008000003F1E023DC331A604FF451720B4B1A6092
:100810002046FFF73FFF70BD04F00F4030900440CA
:1008200000900340AC8CFF1F08F00F403480044060
:100830000A200640062006401090034034900440F1
:1008400008B5FFF70FFEFFF747FE00F03BFFFAE7A2
:10085000044B00221A6004490A60044A1060102206
:100860001A60704714D0034004D0034000D0034006
:1008700021281ED80F4B53F8303093F8802212F005
:10088000FF0F08D019B1012283F8802070470122A0
:1008900083F800217047074B03EBC000436821B188
:1008A0001A6842F003021A6070471A6822F00202C6
:1008B0001A6070477C2C000021281CD80E4B03EBDB
:1008C000C0035B68012908D10B4A52F8302082F836
:1008D00080124FF4A2721A607047074A52F8302013
:1008E000002082F8800219B94FF480721A607047B4
:1008F00040F203121A6070477C2C000072B60C4B59
:100900001B680C4A12680C49096862B611F0806FC6
:1009100002D0322B88BF0132C3F5BB433F330749B6
:10092000A1FB03031B094FF47A7000FB02307047F0
:1009300018E000E0D08CFF1F04ED00E0ABAAAAAAEB
:1009400038B50546FFF7DAFF044665B1FFF7D6FF75
:10095000001BB0F57A7F03D3013D04D004F57A740F
:1009600000F0B0FEF2E738BD10B5254B4FF40002A1
:100970001A604FF080721A604FF000721A604FF0E8
:1009800080621A604FF000621A6000201D4B1860F0
:100990004BF6FF710433196028231B4A1360083299
:1009A0001360083213600832136008321360083293
:1009B000136008321360083213600822134C22605F
:1009C00004F580540434206004342160043423602E
:1009D00008342360143C226004F5FE2404342060B3
:1009E0000B4801600B490B6008310B600A4B1A6021
:1009F00001F01CF80420FFF7A3FF00F063FC10BD1A
:100A000008E100E0048003400C80034000800340C4
:100A100008800B400C800B4000800B4030B40E4B24
:100A20001B7843F002020D4C04EBC20460600C48DA
:100A3000007800280CBF8824C82444EA0141074DEF
:100A400045F8321080F00100054A107083F0010370
:100A5000014A137030BC7047508DFF1F0080FF1F8C
:100A6000D98DFF1F10B4431E052B11D872B60A4A48
:100A700052F8230050B14268074941F82320074A41
:100A800032F813400188611A22F8131062B600E0B0
:100A900000205DF8044B7047388DFF1FA48FFF1FA7
:100AA000013805280DD872B6074B53F820302BB10A
:100AB000002001305B68002BFBD100E0002062B613
:100AC00070470020704700BF948DFF1F38B572B685
:100AD00001231B491B4C5A1812F8012C12F0080F65
:100AE00024D09A0054F832506DB9164B03EBC20172
:100AF00008304860144943F83210144B1A78013A10
:100B00001A7062B638BD42F0010254F832506DB925
:100B10000C4B03EBC201083048600D4943F832101A
:100B20000A4B1A78013A1A7062B638BD0133072BA6
:100B3000D1D162B60022054B1A7000F027FC38BDF7
:100B4000802E00000080FF1F88004000CE8DFF1F18
:100B5000C800400010B4431E052B37D8400140F0B8
:100B600010001C4A104472B61B4AD25C032A09D8F2
:100B7000DFE802F019021B050830022216E00830F7
:100B8000042213E0154A52F823201AB9134A42F8F6
:100B9000231003E0124A52F823205160104A42F811
:100BA000231062B612E0032200E005220A4CE25450
:100BB00001F10803436000F00803002B0CBF8823F9
:100BC000C8230A8843EA0243036062B65DF8044B17
:100BD000704700BF0080FF1FF08CFF1F948DFF1F28
:100BE000AC8DFF1F2DE9F84FA84CDFF8F092DFF82D
:100BF000F0A2DFF8F0B22578EDB215F0040F1DD0A9
:100C0000A34B1B7813F0FF0F16D0A24B1B7803F0F9
:100C1000FF022BB1531EDBB29E4A137003B900BE14
:100C20009D4B1B7803F0FF0233B1531EDBB29A4A8F
:100C300013700BB900F028FD0423237015F0080F82
:100C400000F0D48299F80030DBB21D0940F0158223
:100C5000924D9E0805EBC6035A6855F83630C3F32B
:100C60008303013B0C2B00F20482DFE813F0BB018D
:100C7000BB01020202020202020202020202DC01C3
:100C80000202020202020D00854913680B605268DD
:100C90004A60844A45F83620002283490A607F4929
:100CA0000A618A610121814A11709BB240F281621E
:100CB000934218D8B3F5D06F29D2B3F5817F00F0F5
:100CC000178106D8802B00F0C380822B00F0C680ED
:100CD00056E140F20232934200F01F81B3F5A06F5B
:100CE00000F052814CE1B3F5106F16D004D8B3F583
:100CF000086F00F0A78043E140F62112934200F014
:100D00006D8140F62122934200F03E8138E1684B2C
:100D10005D68002D40F016812EE1614B9A785C4BA6
:100D20001A705E4D05F1C0062B6A13F0800F03D0D8
:100D3000686A083800F02AFB0835B542F4D1DFF8BC
:100D4000A881002637465B4AB05828B1456800F0B4
:100D50001DFB0DB12846F9E7002356497350564A4A
:100D6000B350564BF05828B1456800F00FFB0DB159
:100D70002846F9E7002351497350514AB35028F8E7
:100D8000023F504BFB5C023B032B0AD8DFE803F029
:100D90000206020600224B4BDA5502E00122494BC3
:100DA000DA5501370436182ECDD10022464B1A7081
:100DB0000125464EDFF83481384F05EB080313F860
:100DC000013C06F8043B13F0080F2DD000F0BEFAEA
:100DD00048B1A90007EB451200F1080353603C4AF3
:100DE00047F8312007E0AB00002247F83320364BAC
:100DF0001A7801321A7000F0A9FA58B1AB0043F02A
:100E0000010307EBC30100F108024A60254A47F8D5
:100E1000332009E0AB0043F00103002247F8332000
:100E2000294B1A7801321A70AA0042F002010023FD
:100E300047F8313042F0030247F8323001355E4561
:100E4000BBD114E2124B1B78224D2B700127A0E07E
:100E5000204D00232B706B7002279AE0104B9B886B
:100E6000062B03D90F221C4B1A70B7E0194A002138
:100E700011705170184A12F8233013F0020F00F06D
:100E80008680144D01232B70022782E080200740CA
:100E9000D88DFF1F518DFF1FE88DFF1F0080FF1FA2
:100EA000C48DFF1FC8004000D48CFF1FD98DFF1FC9
:100EB000882E0000388DFF1FD88CFF1F948DFF1FD8
:100EC000AC8DFF1FF08CFF1FCE8DFF1FC42007408D
:100ED00088004000D08DFF1FC020074090200740B1
:100EE00094200740DC200740A28FFF1F802E0000C7
:100EF000964B9B8803F07F02062A02DC934A5288B5
:100F00001AB10F22924B1A7068E0914A12F823101E
:100F100021F0020102F82310A9E18C4B9B8803F019
:100F20007F02062A02DC894A52881AB10F22884BB6
:100F30001A7053E0864A12F8231041F0020102F8B9
:100F4000231094E1814B5E889F88824BA3F10C02B1
:100F5000114633F80C0CB04209D133F80A0CB842F0
:100F600005D1360A032E0CBF2F78178911E00D69C1
:100F70000C330C32002DEBD10F22754B1A702DE083
:100F80000F22734B1A7029E000273D4601E002272B
:100F9000714D6E4BDB889F4228BF1F46402F34BFE8
:100FA0003E46402628463146FFF738FD3544BF1BF4
:100FB00003D13F2E00F2608110E0402F34BF3E4647
:100FC000402628463146FFF729FD3544BF1B01D195
:100FD0003F2E03D9614B1D60614B1F8001238AF8AE
:100FE000003046E0594B19685E4B994217D1574B78
:100FF00059685D4B994212D11378A92B0FD15378C0
:10100000452B0CD19378C22B09D1D3786B2B06D109
:101010000522564B1A7000200146FFF7FFFC544B87
:1010200045F8363025E04D4B1E68BEB14C4FB7F841
:101030000080B8F1400F34BF454640253046294670
:10104000FFF7ECFCC5EB08039BB23B800BB9402DCE
:1010500001D1354400E00025404B1D603B4B1B880F
:10106000B3F5A06F05D1394B00225A709B784149E6
:101070000B7001238AF80030B5E03F4E9F0806EB65
:10108000C708D8F80420A2F10800013DEDB213F022
:10109000080F47D000F07AF9384B53F825304BB39E
:1010A0005A68364941F8252003F10802C8F804209F
:1010B000334A525D032A12D8DFE802F002060A0E14
:1010C00003212F4A51550AE002212D4A515506E0CD
:1010D00005212B4A515502E00421294A515518F0A7
:1010E000080F0CBF8822C8221B8842EA034346F837
:1010F000373078E0224B5B5D032B0BD8DFE803F041
:101100007373020600221E4B5A556CE001221C4BE1
:101110005A5568E018F0080F0CBF02220322184B42
:101120005A5560E056F837301B0C22F8083C002B6B
:1011300051D0002322F8063C42F8043C114B53F8EE
:1011400025300BBB0F4B43F8250021E0C48DFF1F5A
:10115000C0200740942E0000D08DFF1FD48CFF1FAD
:10116000CC8DFF1F2109000301000400518DFF1FDA
:10117000C8004000982007400080FF1F948DFF1F8B
:10118000F08CFF1F388DFF1F3F4B53F82530586000
:101190003D4B43F825003D4B33F8151032F8082C31
:1011A0000A4423F8152000F0D1F860B100F10803DB
:1011B000C8F8043018F0080F354B364A08BF1346FC
:1011C00046F837300FE0002346F83730324B1A78B4
:1011D00001321A7007E018F0080F2D4B2D4A08BF96
:1011E000134646F837300823237004E515F0010F45
:1011F00022D02A4902230B700022294B1A70294B56
:1012000024481860284C5C6098602848D8601A61AF
:101210009A610D20264B1870FF232648037008386A
:10122000037018300270244A13709F22234B1A70E7
:1012300001230B70BDE8F88F15F0800F05D00D224B
:101240001B4B1A708022403B1A7015F0020F06D01B
:10125000184B1A78D2B21A700222083B1A7015F095
:10126000100F0ED01022164B1A70BDE8F88F002018
:101270000146FFF7D3FBB1E628460021FFF7CEFB7E
:10128000ACE6BDE8F88F00BFD88CFF1FA48FFF1F0E
:10129000C800400088004000CE8DFF1F942007400A
:1012A000508DFF1F0080FF1FF88CFF1F548DFF1F04
:1012B000C0200740882007408C200740842007403A
:1012C0008020074008B501F073FB00231B491A4634
:1012D0005A50C81842600833C82BF9D1184B1A6805
:1012E00042F480221A60154BC3F30721154A11708E
:1012F000C3F30741143211701B0E04321370FF2325
:10130000343A137008321370783A13700123843220
:10131000137000216C3211707C3A137070220A4BEA
:101320001A704FF40072A3F241331A60102203F1D5
:10133000C04303F5C8231A7008BD00BF0080FF1F1B
:10134000348004409C20074049E400E072B60D4B15
:101350001A68B2FA82F30B2B02D962B600207047EA
:101360004FF00041D94022EA010206490A6062B604
:10137000054903EBC303DB00C8180022CA504260D2
:10138000704700BF6487FF1F0084FF1F08B50F4B25
:10139000C31A0F4AA2FB03131B090B2B14D80D4AC7
:1013A00012783AB10C4A127812F0FF0F02D0FFF710
:1013B0008DFB08BD72B6094A4FF0004121FA03F3D4
:1013C00011681943116062B608BD00BF0084FF1F99
:1013D000398EE338CE8DFF1FD88DFF1F6487FF1F26
:1013E000F8B5194B1B7813F0FF0F24D0174C0227C8
:1013F000154E206820B93846FFF734FB2060E8B16D
:101400004388C218157A6DB101330288934206D31E
:10141000FFF7BCFF00220D4B1A602846F8BD438041
:101420002846F8BDFFF7B2FF00232360337813F09E
:10143000FF0FDED105E04FF0FF30F8BD4FF0FF3079
:10144000F8BD4FF0FF30F8BDD88DFF1FE48DFF1FB2
:1014500070B5134B1B7813F0FF0F16D0114C0226FA
:101460000F4D206820B93046FFF7FCFA206078B1B4
:10147000438803441B7A73B9FFF788FF0023236076
:101480002B7813F0FF0FECD107E04FF0FF3070BD69
:101490004FF0FF3070BD184670BD4FF0FF3070BD8B
:1014A000D88DFF1FE48DFF1F38B5194B1B6853B94A
:1014B000184B1B7813F0FF0F24D00220FFF7D2FA4D
:1014C000134B186000B3124B1868058843889D427F
:1014D00012DDC218127A7AB103F108020244ED1A41
:1014E000012303E012F8011F013319B11C46AB427E
:1014F000F8D100E023464BB9FFF748FF0020044B2A
:10150000186038BD002038BD002038BD204638BDE9
:10151000E48DFF1FD88DFF1F2DE9F04704460122FF
:101520003B4B1A700F4600296DD0DFF8F090DFF8C2
:10153000F0A01E46DFF8DC80D9F80030A3BB9AF893
:10154000003013F0FF0F06D10022314B1A704FF01C
:10155000FF30BDE8F08741F6B5650120FFF7A0FA3E
:10156000052806D801233370FFF7F0FEC9F8000004
:10157000D0B9013D02D098F800304BB10122254B83
:101580001A700022224B1A704FF0FF30BDE8F0872E
:101590000023337000F096F8012333709AF800307E
:1015A00013F0FF0FD9D1CFE7002388F80030D9F826
:1015B00000104A88C2F14005AF4238BF3D4602F1F3
:1015C00008030B442A444A807F1B3DB1254414F88C
:1015D000012B03F8012BAC42F9D100E025464B88E2
:1015E0003F2B03D805220C4B1A7009E040230B80D7
:1015F0000024094B1C700120FFF7ACFAC9F8004029
:101600000FB12C4698E70020014B1870BDE8F08719
:10161000DA8DFF1FE08DFF1FE88DFF1FDC8DFF1FA0
:10162000D88DFF1F00B583B002AB03F8010D18463B
:101630000121FFF771FF03B05DF804FB08B50F4B04
:101640001B7813F0FF0F17D00D4B1968A1B14A8812
:1016500092B100200B4B187013463F2A04DCCA18C5
:1016600010720133402BFAD140230B800120FFF789
:1016700071FA0022024B1A6008BD00BFD88DFF1F0F
:10168000DC8DFF1FE88DFF1F08B50C4B1B7813F096
:10169000FF0F12D10A4B19684B883F2B05DC002045
:1016A000CA1810720133402BFAD140230B8001205D
:1016B000FFF750FA0022024B1A6008BDDA8DFF1FB7
:1016C000DC8DFF1F08B50F4B1B78CBB901220D4BEA
:1016D0001A70FFF7E9FE08B101F0CAF900F01AFC30
:1016E00008B100F087F800F091FE08B100F008F9A9
:1016F00001F0AEF808B100F089F90022014B1A7030
:1017000008BD00BFE98DFF1F08B503681B68C9B29B
:10171000984708BD08B503681B68C9B2984708BD5B
:1017200008B503681B68C9B2984708BD08B50368C7
:101730001B68C9B2984708BD08B54B0803F137705C
:1017400000F5D840B0FBF1F000F04CFA08BD00BF46
:1017500010B514464B0803F1377000F5D840B0FBC4
:10176000F1F000F03FFA204600F082FA10BD00BF11
:1017700008B500F0ADFA08BD08B5084600F0DAFA81
:1017800008BD00BF08B500F0C5FB08BD08B500F0F6
:10179000EDFB08BD08B500F0CDFB08BD08B500F0B5
:1017A00097FB08BD08B500F0FBFB08BD08B500F0CD
:1017B0009FFB08BD08B5084600F0D8FA012008BD17
:1017C00008B5084600F0D2FA012008BD10B514464D
:1017D0000846114600F01AFB204610BD38B50D46EC
:1017E000084601F09FF904462846214600F00EFB0A
:1017F000204638BD704700BF044B00221A714FF4D9
:101800007A7199601A73024A1A607047EC8DFF1F53
:10181000982D000008B503681B68C9B2984708BD39
:1018200008B503681B68C9B2984708BD08B50368C6
:101830001B68C9B2984708BD08B503681B68C9B2E0
:10184000984708BD08B54B0803F1377000F5D8403C
:10185000B0FBF1F000F042FC08BD00BF10B514462B
:101860004B0803F1377000F5D840B0FBF1F000F001
:1018700035FC204600F078FC10BD00BF08B500F034
:10188000A3FC08BD08B5084600F0D0FC08BD00BFA9
:1018900008B500F0BBFD08BD08B500F0E3FD08BDCC
:1018A00008B500F0C3FD08BD08B500F08DFD08BD0A
:1018B00008B500F0F1FD08BD08B500F095FD08BDC4
:1018C00008B5084600F0CEFC012008BD08B5084662
:1018D00000F0C8FC012008BD10B5144608461146AA
:1018E00000F010FD204610BD38B50D46084601F049
:1018F00019F904462846214600F004FD204638BD6B
:10190000704700BF044B00221A714FF47A7199603E
:101910001A73024A1A607047FC8DFF1FE82D000001
:1019200008B503681B68C9B2984708BD08B50368C5
:101930001B68C9B2984708BD08B503681B68C9B2DF
:10194000984708BD08B503681B68C9B2984708BD29
:1019500008B54B0803F1377000F5D840B0FBF1F043
:1019600000F038FE08BD00BF10B514464B0803F167
:10197000377000F5D840B0FBF1F000F02BFE2046A8
:1019800000F06AFE10BD00BF08B500F095FE08BD6E
:1019900008B5084600F0C2FE08BD00BF08B500F05B
:1019A00057FF08BD08B500F07FFF08BD08B500F07F
:1019B0005FFF08BD08B500F029FF08BD08B500F0BD
:1019C0008DFF08BD08B500F031FF08BD08B5084619
:1019D00000F0C0FE012008BD08B5084600F0BAFEC0
:1019E000012008BD10B514460846114600F002FF5C
:1019F000204610BD38B50D46084601F093F8044660
:101A00002846214600F0F6FE204638BD704700BF4C
:101A1000044B00221A714FF47A7199601A73024ACA
:101A20001A6070470C8EFF1F382E000060223A4B60
:101A30001A70E12201331A70384B1B78082B10D131
:101A4000002203F1804303F56C331A6013233449F9
:101A50000B6001F5FF2101F2FC710A60314A13604D
:101A60001FE00A2B0DD138222F4B1A6013232C496B
:101A70000B6001F5FF2101F2FC710A60294A136035
:101A80000FE00C2B0CBF34223C22274B1A60122390
:101A900023490B6001F5FF2101F2FC710A60214A24
:101AA0001360224B1B7833B10123214A136002F5E6
:101AB0000022136005E000231D4A136002F5002296
:101AC00013601C4B1B78012B06D880231A4A136025
:101AD00002F5002213601AE0042B06D88423164A6C
:101AE000136002F50022136011E0082B06D885234D
:101AF000114A136002F50022136008E0102B94BF16
:101B0000862387230C4A136002F50022136001220A
:101B10000A4B1A70704700BF004007406887FF1FDC
:101B20000CB003400CB00B4008B003401D8EFF1FEB
:101B300020B003406987FF1F24B003401C8EFF1FA5
:101B4000024B1A6801321A60704700BFD08CFF1F29
:101B500008B50D4C236813F4802F01D0FFF742F82D
:101B6000236813F4806F01D000F038FA236813F46F
:101B7000006F01D000F0AEFC236813F4805FE9D061
:101B800000F0B6FEE6E700BF3480044008B5FFF77A
:101B9000DFFF00BF1022014B1A8070470020054074
:101BA000704700BFEFF31383ABB9EFF31083ABB90A
:101BB000EFF3058323B10F2B05D9094A985C03E0A5
:101BC0004FF4807000E00020EFF311833BB18342BB
:101BD00038BF184670474FF0FF30704700207047FD
:101BE000F0E300E0194B1A6842F480621A600023A7
:101BF000174A1370174A1370174A1370174A137055
:101C0000174A137040F21332164B1A604FF4517298
:101C100004331A60C0F34432134B1A70C0F34712F6
:101C20005A7000F01F00987204229A700221D97431
:101C30005A7588221A743C22DA7040220B4B1A70B3
:101C40004FF40052A3F229331A60704734800440E5
:101C5000A08EFF1F1F8EFF1FA88EFF1FA18EFF1FCC
:101C60001E8EFF1F40A0044000A006402DE400E0AF
:101C7000164B9B7803F0EC0300F00302134310F0C3
:101C8000040F18BF43F01003104A937000F00F03C5
:101C9000042B04D11346927942F040029A710B4B07
:101CA0005A7902F0EF0210F0100F18BF42F0100244
:101CB000064B5A719B7903F0EF0310F0200F18BF09
:101CC00043F01003014A9371704700BF00A0064023
:101CD00010B5114B1B6813F4806F1CD00F4B1B7891
:101CE00013F0FF0F06D00D4CFFF7ECFC237813F038
:101CF000FF0FF9D14FF40052094B1A600023094A33
:101D0000D37040F2031208490A6004310A60074A9E
:101D10001370074A137010BD348004401E8EFF1FDD
:101D200084E100E000A0064040A00440A08EFF1F18
:101D30001F8EFF1F10B50446094A137813F0FF0FDA
:101D4000FBD120460121FEF7B7FD20460021FEF71A
:101D50008FFD044B53F83420034B1A6010BD00BFB5
:101D60001E8EFF1F7C2C0000A48EFF1F2DE9F0416A
:101D700007461F4B1B6813F4806F37D01D4B1B6841
:101D80000BB101221A701C4B1C780134402C28BF67
:101D900000241A4D1A4EDFF86C8017E0FFF702FF9F
:101DA00040280FDC337913F0800F0FD02B780133EC
:101DB000402B28BF002318F80320D2B2F271DBB207
:101DC0002B7003E0FF2801DDFFF77CFC2B78DBB2F2
:101DD0009C42E3D0FFB20B4B1F5501220A4B1A70F5
:101DE000E4B2054B1C70BC22054BDA70BDE8F081F3
:101DF00034800440A48EFF1FA88EFF1FA18EFF1FFA
:101E000000A00640208EFF1F1E8EFF1F2DE9F84FF9
:101E10000746284B1B6813F4806F49D0264B1B687C
:101E20000BB101221A7007EB010B5F453DD2DFF8C1
:101E30009890224EDFF88C80DFF890A099F800404F
:101E40000134402C28BF00243578EDB2A54220D1C2
:101E5000BC2388F80330FFF7A5FE402811DC98F872
:101E6000043013F0800F10D033780133402B28BF9B
:101E700000231AF80320D2B288F80720DBB23370AF
:101E800003E0FF2801DDFFF71DFC3378DBB29D4244
:101E9000E1D017F8013B0AF804300122084B1A7010
:101EA000E4B289F800405F45C8D1BC22054BDA7026
:101EB000BDE8F88F34800440A48EFF1FA18EFF1F61
:101EC0001E8EFF1F00A00640A88EFF1F208EFF1F42
:101ED00010B5064B1B7813F0FF0F06D0034CFFF72D
:101EE000F1FB237813F0FF0FF9D110BD1E8EFF1FF9
:101EF000064B1B78DBB2064A1278D2B293422CBF53
:101F00003F3202F1FF32D01A704700BFA88EFF1F88
:101F1000A18EFF1F054B1878C0B2054B1B78DBB2B2
:101F2000984238BF4030C01A704700BFA08EFF1FD4
:101F30001F8EFF1F0A4B1A78D2B20A4B1B78DBB2F6
:101F40009A4209D00133402B28BF0023064AD05CB7
:101F5000DBB2044A137070474FF0FF30704700BF88
:101F6000A08EFF1F1F8EFF1F608EFF1F094B1A7868
:101F7000D2B2094B1B78DBB29A4207D00133402B17
:101F800028BF0023054AD05CC0B270474FF0FF3035
:101F9000704700BFA08EFF1F1F8EFF1F608EFF1FA8
:101FA0000A4B1B6813F4806F0FD0094BDA7802F0EC
:101FB000CB02DA7040225A74DA7842F03402DA70D6
:101FC000044B1A78D2B2044B1A7070473480044024
:101FD00000A006401F8EFF1FA08EFF1F70B4364B5F
:101FE0001B7913F0300F25D072B6334B9B7D03F075
:101FF000FF022BB9304BDA7940225A7462B619E0ED
:1020000062B62E4B1978C9B22D4B1D78EDB22A4C11
:102010002C4EE379D8B24B1C402B28BF0023AB4297
:102020001CBFF0541946531E13F0FF02F1D1C9B280
:10203000224B1970204BDA78D2B212F0800F27D0E1
:102040001B7913F0800F23D01F4B1C78E4B21F4B79
:102050001B78DBB29C4210D017491D4D01E0A34212
:102060000BD00133402B28BF00230879E85CC0B2B5
:10207000C871087DC0B20728F1D9DBB213490B70D3
:102080000D4B1B7913F0800F02D07C210A4BD970C5
:1020900012F0400F0ED0084B1B7913F0400F09D0FF
:1020A00000220C4B1A700C4B1B6803B11A703C22B7
:1020B000014BDA7070BC704700A00640A08EFF1F75
:1020C0001F8EFF1F608EFF1FA88EFF1FA18EFF1F98
:1020D000208EFF1F1E8EFF1FA48EFF1F194B1A6834
:1020E00042F400621A600023174A1370174A1370F3
:1020F000174A1370174A1370174A137040F21332BD
:10210000164B1A604FF4517204331A60C0F3443214
:10211000134B1A70C0F347125A7000F01F009872E8
:1021200004229A700221D9745A7588221A743C22AA
:10213000DA7040220B4B1A704FF40042A3F22B339B
:102140001A60704734800440148FFF1FAA8EFF1F4F
:102150001C8FFF1F158FFF1FA98EFF1F0CB004409F
:1021600000B006402FE400E0164B9B7803F0EC0330
:1021700000F00302134310F0040F18BF43F01003E4
:10218000104A937000F00F03042B04D11346927988
:1021900042F040029A710B4B5A7902F0EF0210F0B4
:1021A000100F18BF42F01002064B5A719B7903F0D2
:1021B000EF0310F0200F18BF43F01003014A937192
:1021C000704700BF00B0064010B5114B1B6813F4F8
:1021D000006F1CD00F4B1B7813F0FF0F06D00D4C77
:1021E000FFF770FA237813F0FF0FF9D14FF4004294
:1021F000094B1A600023094AD37040F203120849C0
:102200000A6004310A60074A1370074A137010BD50
:1022100034800440A98EFF1F84E100E000B0064036
:102220000CB00440148FFF1FAA8EFF1F10B5044688
:10223000094A137813F0FF0FFBD120460121FEF766
:102240003BFB20460021FEF713FB044B53F83420E0
:10225000034B1A6010BD00BFA98EFF1F7C2C00002D
:10226000188FFF1F2DE9F04107461F4B1B6813F421
:10227000006F37D01D4B1B680BB101221A701C4B2D
:102280001C780134282C28BF00241A4D1A4EDFF880
:102290006C8017E0FFF786FC40280FDC337913F0E1
:1022A000800F0FD02B780133282B28BF002318F87C
:1022B0000320D2B2F271DBB22B7003E0FF2801DD04
:1022C000FFF700FA2B78DBB29C42E3D0FFB20B4B56
:1022D0001F5501220A4B1A70E4B2054B1C70BC2238
:1022E000054BDA70BDE8F08134800440188FFF1F81
:1022F0001C8FFF1F158FFF1F00B00640AC8EFF1F05
:10230000A98EFF1F2DE9F84F0746284B1B6813F4D1
:10231000006F49D0264B1B680BB101221A7007EBE6
:10232000010B5F453DD2DFF89890224EDFF88C809C
:10233000DFF890A099F800400134282C28BF002431
:102340003578EDB2A54220D1BC2388F80330FFF7E1
:1023500029FC402811DC98F8043013F0800F10D0CD
:1023600033780133282B28BF00231AF80320D2B278
:1023700088F80720DBB2337003E0FF2801DDFFF7A8
:10238000A1F93378DBB29D42E1D017F8013B0AF89E
:1023900004300122084B1A70E4B289F800405F450E
:1023A000C8D1BC22054BDA70BDE8F88F34800440F8
:1023B000188FFF1F158FFF1FA98EFF1F00B006404B
:1023C0001C8FFF1FAC8EFF1F10B5064B1B7813F040
:1023D000FF0F06D0034CFFF775F9237813F0FF0FBA
:1023E000F9D110BDA98EFF1F064B1B78DBB2064A40
:1023F0001278D2B293422CBF273202F1FF32D01AA8
:10240000704700BF1C8FFF1F158FFF1F054B1878EB
:10241000C0B2054B1B78DBB2984238BF4030C01ABF
:10242000704700BF148FFF1FAA8EFF1F0A4B1A7838
:10243000D2B20A4B1B78DBB29A4209D00133402B4F
:1024400028BF0023064AD05CDBB2044A13707047F1
:102450004FF0FF30704700BF148FFF1FAA8EFF1F81
:10246000D48EFF1F094B1A78D2B2094B1B78DBB20E
:102470009A4207D00133402B28BF0023054AD05C85
:10248000C0B270474FF0FF30704700BF148FFF1F7E
:10249000AA8EFF1FD48EFF1F0A4B1B6813F4006F18
:1024A0000FD0094BDA7802F0CB02DA7040225A746E
:1024B000DA7842F03402DA70044B1A78D2B2044B64
:1024C0001A7070473480044000B00640AA8EFF1F87
:1024D000148FFF1F70B4364B1B7913F0300F25D0CB
:1024E00072B6334B9B7D03F0FF022BB9304BDA7988
:1024F00040225A7462B619E062B62E4B1978C9B2FE
:102500002D4B1D78EDB22A4C2C4EE379D8B24B1CE2
:10251000402B28BF0023AB421CBFF0541946531E6A
:1025200013F0FF02F1D1C9B2224B1970204BDA78B7
:10253000D2B212F0800F27D01B7913F0800F23D076
:102540001F4B1C78E4B21F4B1B78DBB29C4210D0AF
:1025500017491D4D01E0A3420BD00133282B28BFA2
:1025600000230879E85CC0B2C871087DC0B20728B2
:10257000F1D9DBB213490B700D4B1B7913F0800FAF
:1025800002D07C210A4BD97012F0400F0ED0084BBC
:102590001B7913F0400F09D000220C4B1A700C4B22
:1025A0001B6803B11A703C22014BDA7070BC704793
:1025B00000B00640148FFF1FAA8EFF1FD48EFF1F8E
:1025C0001C8FFF1F158FFF1FAC8EFF1FA98EFF1FD3
:1025D000188FFF1F174B1A6842F480521A600023AD
:1025E000154A1370154A1370154A1370154A137063
:1025F000154A137040F21331144A11604FF45171AF
:1026000004321160C0F34431114A1170C0F3471114
:10261000517000F01F009072937013742C23D370CC
:1026200040220C4B1A704FF40032A3F22D331A6083
:10263000704700BF34800440888FFF1F1E8FFF1F2C
:10264000908FFF1F898FFF1F1D8FFF1F08C0044041
:1026500000C0064031E400E0164B9B7803F0EC0329
:1026600000F00302134310F0040F18BF43F01003EF
:10267000104A937000F00F03042B04D11346927993
:1026800042F040029A710B4B5A7902F0EF0210F0BF
:10269000100F18BF42F01002064B5A719B7903F0DD
:1026A000EF0310F0200F18BF43F01003014A93719D
:1026B000704700BF00C0064010B5114B1B6813F4F3
:1026C000805F1CD00F4B1B7813F0FF0F06D00D4C12
:1026D000FEF7F8FF237813F0FF0FF9D14FF4003223
:1026E000094B1A600023094AD37040F203120849CB
:1026F0000A6004310A60074A1370074A137010BD5C
:10270000348004401D8FFF1F84E100E000C00640BC
:1027100008C00440888FFF1F1E8FFF1F10B504469E
:10272000094A137813F0FF0FFBD120460121FEF771
:10273000C3F820460021FEF79BF8044B53F83420E1
:10274000034B1A6010BD00BF1D8FFF1F7C2C0000C3
:102750008C8FFF1F2DE9F04107461F4B1B6813F4B8
:10276000805F37D01D4B1B680BB101221A701C4BC8
:102770001C780134282C28BF00241A4D1A4EDFF88B
:102780006C8017E0FFF70EFA40280FDC337913F066
:10279000800F0FD02B780133282B28BF002318F887
:1027A0000320D2B2F271DBB22B7003E0FF2801DD0F
:1027B000FEF788FF2B78DBB29C42E3D0FFB20B4BD5
:1027C0001F5501220A4B1A70E4B2054B1C70AC2253
:1027D000054BDA70BDE8F081348004408C8FFF1F18
:1027E000908FFF1F898FFF1F00C00640208FFF1FA3
:1027F0001D8FFF1F38B505460C4629B115F8010B92
:10280000FFF7A8FF013CF9D138BD00BF10B5064B5A
:102810001B7813F0FF0F06D0034CFEF753FF23780D
:1028200013F0FF0FF9D110BD1D8FFF1F064B1B7852
:10283000DBB2064A1278D2B293422CBF273202F1A1
:10284000FF32D01A704700BF908FFF1F898FFF1F84
:10285000054B1878C0B2054B1B78DBB2984238BFE5
:102860004030C01A704700BF888FFF1F1E8FFF1FA8
:102870000A4B1A78D2B20A4B1B78DBB29A4209D0C3
:102880000133402B28BF0023064AD05CDBB2044A48
:10289000137070474FF0FF30704700BF888FFF1FE5
:1028A0001E8FFF1F488FFF1F094B1A78D2B2094BAA
:1028B0001B78DBB29A4207D00133402B28BF00239C
:1028C000054AD05CC0B270474FF0FF30704700BF80
:1028D000888FFF1F1E8FFF1F488FFF1F024B1A7824
:1028E000D2B2024B1A7070471E8FFF1F888FFF1FD6
:1028F000264B1B7913F0200F12D0244BDB79D9B271
:10290000234B1B780133402B28BF0023214A127828
:10291000D2B29A4204D0204AD154DBB21C4A13707E
:102920001A4BDB78DBB213F0800F1CD0174A1279F8
:1029300012F0800F17D0194A1178C9B2184A1278CC
:10294000D2B2914203D16C21104AD1700BE0013216
:10295000282A28BF00221349885CC0B20B49C871DD
:10296000D2B20F490A7013F0400F0ED0074B1B79FB
:1029700013F0400F09D000220B4B1A700B4B1B6851
:1029800003B11A702C22014BDA70704700C0064068
:10299000888FFF1F1E8FFF1F488FFF1F908FFF1F05
:1029A000898FFF1F208FFF1F1D8FFF1F8C8FFF1F21
:1029B00000B585B072B61B4B70221A7041211A4ABD
:1029C00011700F21013A117080221A701A46137883
:1029D00013F0800FFBD0154B186862B6144B984269
:1029E0009CBF00EB8000400001A90A2200F050F8D3
:1029F0009DF804307BB908E001A9595C31B19180A0
:102A0000023201330A2BF7D100E0002301335B00CF
:102A1000084A137003E0074A53800123ECE705B02E
:102A20005DF804FB0000024007000240080002407D
:102A30007F9698005088FF1F08B5FEF735FD08BD4A
:102A400008B5FEF7CDFC08BD08B5FEF701FD08BDD1
:102A500008B5FEF7F3FD08BD08B50846FEF7E2FD30
:102A600008BD00BF08B508461146FEF755FD08BD74
:102A7000704700BF044B00221A714FF47A719960BD
:102A80001A73024A1A607047948FFF1F182F0000B4
:102A900030B40023B0FBF2F402FB14041D46092CF1
:102AA00094BF30343734E4B2CC54B0FBF2F008B108
:102AB0000133EFE70D4400226A70934207DD885C22
:102AC000CC5C8C54C8540132013B9A42F7DB084677
:102AD00030BC704770B50F4E0F4D761BB61007D047
:102AE000043D0024013455F8043F9847A642F9D12B
:102AF0000A4E0B4D761B00F01FFAB61008D0043DAD
:102B00000024013455F8043F9847A642F9D170BD1E
:102B100070BD00BF442F0000442F00005C2F000058
:102B2000442F000020F0030110F00300C0F100006A
:102B300051F8043B00F1040C4FEACC0C6FF000029A
:102B40001CBF22FA0CF213434FF0010C4CEA0C2C80
:102B50004CEA0C4CA3EB0C0222EA030212EACC1260
:102B600004BF51F8043B0430F4D013F0FF0F1FBF33
:102B7000013013F47F4F013013F47F0F18BF013081
:102B8000704700BF024B13B1024800F005B8704710
:102B900000000000A52B000001460020024603466D
:102BA00000F018B838B5094D094C641BA41018BFC3
:102BB00005EB840505D0013C55F8043D9847002CF1
:102BC000F9D1BDE8384000F0C9B900BF00000000ED
:102BD00000000000F0B5274C2668D6F8484185B0C3
:102BE0000746002C41D065681F2D1EDD224818B90C
:102BF0004FF0FF3005B0F0BD4FF4C8700391029262
:102C00000193AFF300800399029A019B04460028C8
:102C1000EED0D6F848512560002060600546C6F821
:102C20004841C4F88801C4F88C013FB9AB1C0020AE
:102C30000135656044F8231005B0F0BD04EB850054
:102C40004FF0010CC0F88820D4F888610CFA05F226
:102C50001643022FC4F88861C0F80831E6D1D4F8D1
:102C60008C311A43C4F88C21E0E706F5A674C6F847
:102C70004841B8E7342F0000000000004008FE4340
:102C800040A004404408FE4344A004400018FE4312
:102C900000C004403000FE43309004403400FE4346
:102CA000349004401C18FE431CC004401018FE431E
:102CB00010C004400818FE4308C004400C18FE432E
:102CC0000CC004400C10FE430CB004401010FE4336
:102CD00010B004401810FE4318B004401C10FE430E
:102CE0001CB004401410FE4314B004400418FE430A
:102CF00004C004400010FE4300B004400008FE433E
:102D000000A004400408FE4304A004400C08FE4355
:102D10000CA004400808FE4308A004401418FE4319
:102D200014C004401818FE4318C004400410FE43A9
:102D300004B004400810FE4308B004401400FE43F1
:102D4000149004404C08FE434CA004400420FE4371
:102D500004D004402410FE4324B004402010FE435D
:102D600020B004402810FE4328B004402C10FE433D
:102D70002CB004400020FE4300D004404808FE432D
:102D800048A004401000FE4310900440FFFFFFFFE6
:102D90000000000000000000B5170000CD17000083
:102DA00085170000951700008D1700009D17000083
:102DB0003917000051170000711700007917000043
:102DC000A5170000AD170000091700001517000037
:102DD000211700002D170000DD170000C1170000AB
:102DE0000000000000000000C1180000D918000019
:102DF00091180000A118000099180000A9180000FF
:102E0000451800005D1800007D18000085180000BE
:102E1000B1180000B91800001518000021180000B2
:102E20002D18000039180000E9180000CD18000026
:102E30000000000000000000CD190000E5190000AE
:102E40009D190000AD190000A5190000B51900007A
:102E5000511900006919000089190000911900003A
:102E6000BD190000C5190000211900002D1900002E
:102E70003919000045190000F5190000D9190000A2
:102E80001519151900000000000100006C87FF1FD4
:102E900012000000000200009887FF1F4900000098
:102EA00000220100E487FF1F210000000021010033
:102EB000CA87FF1F09000000002200000888FF1FCA
:102EC0001C00000000210000AA87FF1F090000006D
:102ED000000300004C88FF1F0000000001030904EC
:102EE0008087FF1F00000000020309042488FF1FE1
:102EF00000000000030309045088FF1F00000000C9
:102F0000000000000000000000000000FFFFFFFFC5
:102F10000000000000000000592A0000652A00009F
:102F2000392A0000412A0000492A0000512A0000E5
:102F3000430000006888FF1FF8B500BFF8BC08BC5C
:102F40009E467047852B000035040000F9170000ED
:0C2F500005190000111A0000752A00008D
:042F5C00F8B500BF05
:102F60000D000000FFFFFFFF0A0400001201000235
:102F700000000040C01686040001010203010000A9
:102F800018035400650065006E007300790064004A
:102F9000750069006E006F0009024900020100C05F
:102FA00032090400000203000000092111010001A0
:102FB000221C0007058303400001070504034000AD
:102FC00001090401000203000000092111010001B0
:102FD00022210007058103400001070502032000AC
:102FE0000200000006C9FF0904A15C75081500264F
:102FF000FF0095400975810295200976910295049C
:103000000976B102C000000006ABFF0A0002A10170
:103010007508150026FF00954009018102954009B9
:10302000029102C026035400650065006E00730023
:1030300079006400750069006E006F002000520086
:1030400061007700480049004400000004030904BF
:103050000C03000000000000000000000000000061
:10306000000000000000000000000000548BFF1F63
:10307000BC8BFF1F248CFF1F00000000000000001D
:103080000000000000000000000000000000000040
:10309000000000000000000000000000302F0000D1
:1030A0000000000000000000000000000000000020
:1030B0000000000000000000000000000000000010
:1030C0000000000000000000000000000000000000
:1030D00000000000000000000000000000000000F0
:1030E00000000000000000000000000000000000E0
:1030F00000000000000000000000000000000000D0
:1031000000000000000000000000000000000000BF
:1031100001000000000000000E33CDAB34126DE65C
:10312000ECDE05000B0000000000000000000000C5
:10313000000000000000000000000000000000008F
:10314000000000000000000000000000000000007F
:10315000000000000000000000000000000000006F
:10316000000000000000000000000000000000005F
:00000001FF
